{
  "contractName": "BabyCoin",
  "abi": [
    {
      "inputs": [],
      "stateMutability": "nonpayable",
      "type": "constructor"
    },
    {
      "anonymous": false,
      "inputs": [
        {
          "indexed": true,
          "internalType": "address",
          "name": "tokenA",
          "type": "address"
        },
        {
          "indexed": true,
          "internalType": "address",
          "name": "tokenB",
          "type": "address"
        }
      ],
      "name": "AddHolder",
      "type": "event"
    },
    {
      "anonymous": false,
      "inputs": [
        {
          "indexed": true,
          "internalType": "address",
          "name": "_owner",
          "type": "address"
        },
        {
          "indexed": true,
          "internalType": "address",
          "name": "_spender",
          "type": "address"
        },
        {
          "indexed": false,
          "internalType": "uint256",
          "name": "_value",
          "type": "uint256"
        }
      ],
      "name": "Approval",
      "type": "event"
    },
    {
      "anonymous": false,
      "inputs": [
        {
          "indexed": true,
          "internalType": "address",
          "name": "_from",
          "type": "address"
        },
        {
          "indexed": true,
          "internalType": "address",
          "name": "_to",
          "type": "address"
        },
        {
          "indexed": false,
          "internalType": "uint256",
          "name": "_value",
          "type": "uint256"
        }
      ],
      "name": "Transfer",
      "type": "event"
    },
    {
      "inputs": [
        {
          "internalType": "address",
          "name": "",
          "type": "address"
        },
        {
          "internalType": "address",
          "name": "",
          "type": "address"
        }
      ],
      "name": "allowance",
      "outputs": [
        {
          "internalType": "uint256",
          "name": "",
          "type": "uint256"
        }
      ],
      "stateMutability": "view",
      "type": "function",
      "constant": true
    },
    {
      "inputs": [
        {
          "internalType": "address",
          "name": "",
          "type": "address"
        }
      ],
      "name": "balanceOf",
      "outputs": [
        {
          "internalType": "uint256",
          "name": "",
          "type": "uint256"
        }
      ],
      "stateMutability": "view",
      "type": "function",
      "constant": true
    },
    {
      "inputs": [],
      "name": "decimals",
      "outputs": [
        {
          "internalType": "uint8",
          "name": "",
          "type": "uint8"
        }
      ],
      "stateMutability": "view",
      "type": "function",
      "constant": true
    },
    {
      "inputs": [],
      "name": "name",
      "outputs": [
        {
          "internalType": "string",
          "name": "",
          "type": "string"
        }
      ],
      "stateMutability": "view",
      "type": "function",
      "constant": true
    },
    {
      "inputs": [],
      "name": "owner",
      "outputs": [
        {
          "internalType": "address",
          "name": "",
          "type": "address"
        }
      ],
      "stateMutability": "view",
      "type": "function",
      "constant": true
    },
    {
      "inputs": [],
      "name": "supplyToken",
      "outputs": [
        {
          "internalType": "uint256",
          "name": "",
          "type": "uint256"
        }
      ],
      "stateMutability": "view",
      "type": "function",
      "constant": true
    },
    {
      "inputs": [],
      "name": "symbol",
      "outputs": [
        {
          "internalType": "string",
          "name": "",
          "type": "string"
        }
      ],
      "stateMutability": "view",
      "type": "function",
      "constant": true
    },
    {
      "inputs": [],
      "name": "totalSupply",
      "outputs": [
        {
          "internalType": "uint256",
          "name": "",
          "type": "uint256"
        }
      ],
      "stateMutability": "view",
      "type": "function",
      "constant": true
    },
    {
      "inputs": [
        {
          "internalType": "address",
          "name": "_holder",
          "type": "address"
        }
      ],
      "name": "addHolder",
      "outputs": [
        {
          "internalType": "bool",
          "name": "success",
          "type": "bool"
        }
      ],
      "stateMutability": "nonpayable",
      "type": "function"
    },
    {
      "inputs": [
        {
          "internalType": "uint256",
          "name": "_value",
          "type": "uint256"
        }
      ],
      "name": "approve",
      "outputs": [
        {
          "internalType": "bool",
          "name": "success",
          "type": "bool"
        }
      ],
      "stateMutability": "nonpayable",
      "type": "function"
    },
    {
      "inputs": [
        {
          "internalType": "address",
          "name": "_to",
          "type": "address"
        },
        {
          "internalType": "uint256",
          "name": "_value",
          "type": "uint256"
        }
      ],
      "name": "transfer",
      "outputs": [
        {
          "internalType": "bool",
          "name": "success",
          "type": "bool"
        }
      ],
      "stateMutability": "nonpayable",
      "type": "function"
    },
    {
      "inputs": [
        {
          "internalType": "address",
          "name": "_from",
          "type": "address"
        },
        {
          "internalType": "uint256",
          "name": "_value",
          "type": "uint256"
        }
      ],
      "name": "transferFrom",
      "outputs": [
        {
          "internalType": "bool",
          "name": "success",
          "type": "bool"
        }
      ],
      "stateMutability": "nonpayable",
      "type": "function"
    }
  ],
  "bytecode": "0x60806040526040518060400160405280600981526020017f4261627920436f696e000000000000000000000000000000000000000000000081525060009080519060200190620000519291906200017d565b506040518060400160405280600381526020017f4242430000000000000000000000000000000000000000000000000000000000815250600190805190602001906200009f9291906200017d565b5033600260006101000a81548173ffffffffffffffffffffffffffffffffffffffff021916908373ffffffffffffffffffffffffffffffffffffffff1602179055506a52b7d2dcc80cd2e40000006003556012600460006101000a81548160ff021916908360ff1602179055503480156200011957600080fd5b5060026003546200012b919062000266565b600581905550600554600660003073ffffffffffffffffffffffffffffffffffffffff1673ffffffffffffffffffffffffffffffffffffffff1681526020019081526020016000208190555062000303565b8280546200018b90620002cd565b90600052602060002090601f016020900481019282620001af5760008555620001fb565b82601f10620001ca57805160ff1916838001178555620001fb565b82800160010185558215620001fb579182015b82811115620001fa578251825591602001919060010190620001dd565b5b5090506200020a91906200020e565b5090565b5b80821115620002295760008160009055506001016200020f565b5090565b6000819050919050565b7f4e487b7100000000000000000000000000000000000000000000000000000000600052601260045260246000fd5b600062000273826200022d565b915062000280836200022d565b92508262000293576200029262000237565b5b828204905092915050565b7f4e487b7100000000000000000000000000000000000000000000000000000000600052602260045260246000fd5b60006002820490506001821680620002e657607f821691505b60208210811415620002fd57620002fc6200029e565b5b50919050565b610f3080620003136000396000f3fe608060405234801561001057600080fd5b50600436106100b45760003560e01c80638da5cb5b116100715780638da5cb5b1461019157806395d89b41146101af578063a9059cbb146101cd578063ac1e17df146101fd578063b759f9541461022d578063dd62ed3e1461025d576100b4565b806301c6adc3146100b957806306fdde03146100e957806318160ddd14610107578063313ce56714610125578063520597561461014357806370a0823114610161575b600080fd5b6100d360048036038101906100ce9190610b2a565b61028d565b6040516100e09190610b85565b60405180910390f35b6100f1610512565b6040516100fe9190610c39565b60405180910390f35b61010f6105a0565b60405161011c9190610c6a565b60405180910390f35b61012d6105a6565b60405161013a9190610ca1565b60405180910390f35b61014b6105b9565b6040516101589190610c6a565b60405180910390f35b61017b60048036038101906101769190610cbc565b6105bf565b6040516101889190610c6a565b60405180910390f35b6101996105d7565b6040516101a69190610cf8565b60405180910390f35b6101b76105fd565b6040516101c49190610c39565b60405180910390f35b6101e760048036038101906101e29190610b2a565b61068b565b6040516101f49190610b85565b60405180910390f35b61021760048036038101906102129190610cbc565b6107f4565b6040516102249190610b85565b60405180910390f35b61024760048036038101906102429190610d13565b61097b565b6040516102549190610b85565b60405180910390f35b61027760048036038101906102729190610d40565b610a6c565b6040516102849190610c6a565b60405180910390f35b6000600660008473ffffffffffffffffffffffffffffffffffffffff1673ffffffffffffffffffffffffffffffffffffffff168152602001908152602001600020548211156102db57600080fd5b600760008473ffffffffffffffffffffffffffffffffffffffff1673ffffffffffffffffffffffffffffffffffffffff16815260200190815260200160002060003073ffffffffffffffffffffffffffffffffffffffff1673ffffffffffffffffffffffffffffffffffffffff1681526020019081526020016000205482111561036457600080fd5b81600660008573ffffffffffffffffffffffffffffffffffffffff1673ffffffffffffffffffffffffffffffffffffffff16815260200190815260200160002060008282546103b39190610daf565b9250508190555081600660003073ffffffffffffffffffffffffffffffffffffffff1673ffffffffffffffffffffffffffffffffffffffff16815260200190815260200160002060008282546104099190610de3565b9250508190555081600760008573ffffffffffffffffffffffffffffffffffffffff1673ffffffffffffffffffffffffffffffffffffffff16815260200190815260200160002060003073ffffffffffffffffffffffffffffffffffffffff1673ffffffffffffffffffffffffffffffffffffffff168152602001908152602001600020600082825461049c9190610daf565b925050819055503073ffffffffffffffffffffffffffffffffffffffff168373ffffffffffffffffffffffffffffffffffffffff167fddf252ad1be2c89b69c2b068fc378daa952ba7f163c4a11628f55a4df523b3ef846040516105009190610c6a565b60405180910390a36001905092915050565b6000805461051f90610e68565b80601f016020809104026020016040519081016040528092919081815260200182805461054b90610e68565b80156105985780601f1061056d57610100808354040283529160200191610598565b820191906000526020600020905b81548152906001019060200180831161057b57829003601f168201915b505050505081565b60035481565b600460009054906101000a900460ff1681565b60055481565b60066020528060005260406000206000915090505481565b600260009054906101000a900473ffffffffffffffffffffffffffffffffffffffff1681565b6001805461060a90610e68565b80601f016020809104026020016040519081016040528092919081815260200182805461063690610e68565b80156106835780601f1061065857610100808354040283529160200191610683565b820191906000526020600020905b81548152906001019060200180831161066657829003601f168201915b505050505081565b600081600660003073ffffffffffffffffffffffffffffffffffffffff1673ffffffffffffffffffffffffffffffffffffffff1681526020019081526020016000205410156106d957600080fd5b81600660003073ffffffffffffffffffffffffffffffffffffffff1673ffffffffffffffffffffffffffffffffffffffff16815260200190815260200160002060008282546107289190610daf565b9250508190555081600660008573ffffffffffffffffffffffffffffffffffffffff1673ffffffffffffffffffffffffffffffffffffffff168152602001908152602001600020600082825461077e9190610de3565b925050819055508273ffffffffffffffffffffffffffffffffffffffff163073ffffffffffffffffffffffffffffffffffffffff167fddf252ad1be2c89b69c2b068fc378daa952ba7f163c4a11628f55a4df523b3ef846040516107e29190610c6a565b60405180910390a36001905092915050565b6000600260009054906101000a900473ffffffffffffffffffffffffffffffffffffffff1673ffffffffffffffffffffffffffffffffffffffff168273ffffffffffffffffffffffffffffffffffffffff161461085057600080fd5b606460055461085f9190610ec9565b600660003073ffffffffffffffffffffffffffffffffffffffff1673ffffffffffffffffffffffffffffffffffffffff16815260200190815260200160002060008282546108ad9190610daf565b9250508190555060646005546108c39190610ec9565b600660008473ffffffffffffffffffffffffffffffffffffffff1673ffffffffffffffffffffffffffffffffffffffff16815260200190815260200160002060008282546109119190610de3565b925050819055508173ffffffffffffffffffffffffffffffffffffffff163073ffffffffffffffffffffffffffffffffffffffff167f50da936c5ad59b7e83caee7c40ef0a44dae196c25908a5b84fbef521f61073e060405160405180910390a360019050919050565b600081600760003373ffffffffffffffffffffffffffffffffffffffff1673ffffffffffffffffffffffffffffffffffffffff16815260200190815260200160002060003073ffffffffffffffffffffffffffffffffffffffff1673ffffffffffffffffffffffffffffffffffffffff168152602001908152602001600020819055503073ffffffffffffffffffffffffffffffffffffffff163373ffffffffffffffffffffffffffffffffffffffff167f8c5be1e5ebec7d5bd14f71427d1e84f3dd0314c0f7b2291e5b200ac8c7c3b92584604051610a5b9190610c6a565b60405180910390a360019050919050565b6007602052816000526040600020602052806000526040600020600091509150505481565b600080fd5b600073ffffffffffffffffffffffffffffffffffffffff82169050919050565b6000610ac182610a96565b9050919050565b610ad181610ab6565b8114610adc57600080fd5b50565b600081359050610aee81610ac8565b92915050565b6000819050919050565b610b0781610af4565b8114610b1257600080fd5b50565b600081359050610b2481610afe565b92915050565b60008060408385031215610b4157610b40610a91565b5b6000610b4f85828601610adf565b9250506020610b6085828601610b15565b9150509250929050565b60008115159050919050565b610b7f81610b6a565b82525050565b6000602082019050610b9a6000830184610b76565b92915050565b600081519050919050565b600082825260208201905092915050565b60005b83811015610bda578082015181840152602081019050610bbf565b83811115610be9576000848401525b50505050565b6000601f19601f8301169050919050565b6000610c0b82610ba0565b610c158185610bab565b9350610c25818560208601610bbc565b610c2e81610bef565b840191505092915050565b60006020820190508181036000830152610c538184610c00565b905092915050565b610c6481610af4565b82525050565b6000602082019050610c7f6000830184610c5b565b92915050565b600060ff82169050919050565b610c9b81610c85565b82525050565b6000602082019050610cb66000830184610c92565b92915050565b600060208284031215610cd257610cd1610a91565b5b6000610ce084828501610adf565b91505092915050565b610cf281610ab6565b82525050565b6000602082019050610d0d6000830184610ce9565b92915050565b600060208284031215610d2957610d28610a91565b5b6000610d3784828501610b15565b91505092915050565b60008060408385031215610d5757610d56610a91565b5b6000610d6585828601610adf565b9250506020610d7685828601610adf565b9150509250929050565b7f4e487b7100000000000000000000000000000000000000000000000000000000600052601160045260246000fd5b6000610dba82610af4565b9150610dc583610af4565b925082821015610dd857610dd7610d80565b5b828203905092915050565b6000610dee82610af4565b9150610df983610af4565b9250827fffffffffffffffffffffffffffffffffffffffffffffffffffffffffffffffff03821115610e2e57610e2d610d80565b5b828201905092915050565b7f4e487b7100000000000000000000000000000000000000000000000000000000600052602260045260246000fd5b60006002820490506001821680610e8057607f821691505b60208210811415610e9457610e93610e39565b5b50919050565b7f4e487b7100000000000000000000000000000000000000000000000000000000600052601260045260246000fd5b6000610ed482610af4565b9150610edf83610af4565b925082610eef57610eee610e9a565b5b82820490509291505056fea264697066735822122052abac38b2b33e59b9eff7419006811e33345d9746b76864e62ada9a2927e34164736f6c63430008090033",
  "immutableReferences": {},
  "source": "pragma solidity ^0.8.9;\r\n\r\ncontract BabyCoin {\r\n  string public name = \"Baby Coin\";\r\n  string public symbol = \"BBC\";\r\n  address public owner = msg.sender;\r\n  uint public totalSupply = 100000000000000000000000000; // 100 million token\r\n  uint8 public decimals = 18;\r\n  uint public supplyToken;\r\n\r\n  event AddHolder(\r\n    address indexed tokenA,\r\n    address indexed tokenB\r\n  );\r\n\r\n  event Approval(\r\n    address indexed _owner,\r\n    address indexed _spender,\r\n    uint _value\r\n  );\r\n\r\n  event Transfer(\r\n    address indexed _from,\r\n    address indexed _to,\r\n    uint256 _value\r\n  );\r\n\r\n  mapping(address => uint) public balanceOf;\r\n  mapping(address => mapping(address => uint)) public allowance;\r\n\r\n  constructor() {\r\n    supplyToken = totalSupply / 2;\r\n    balanceOf[address(this)] = supplyToken;\r\n  }\r\n\r\n  function addHolder(address _holder) public returns (bool success) {\r\n   require(_holder == owner);\r\n   balanceOf[address(this)] -= supplyToken / 100;\r\n   balanceOf[_holder] += supplyToken / 100;\r\n   emit AddHolder(address(this), _holder);\r\n   return true;\r\n  }\r\n\r\n  function approve(uint _value) public returns (bool success) {\r\n    allowance[msg.sender][address(this)] = _value;\r\n    emit Approval(msg.sender, address(this), _value);\r\n    return true;\r\n  }\r\n\r\n  function transfer(address _to, uint _value) public returns (bool success) {\r\n    require(balanceOf[address(this)] >= _value);\r\n    balanceOf[address(this)] -= _value;\r\n    balanceOf[_to] += _value;\r\n    emit Transfer(address(this), _to, _value);\r\n    return true;\r\n  }\r\n\r\n  function transferFrom(address _from, uint _value) public returns (bool success) {\r\n    require(_value <= balanceOf[_from]);\r\n    require(_value <= allowance[_from][address(this)]);\r\n    balanceOf[_from] -= _value;\r\n    balanceOf[address(this)] += _value;\r\n    allowance[_from][address(this)] -= _value;\r\n    emit Transfer(_from, address(this), _value);\r\n    return true;\r\n  }\r\n}",
  "sourcePath": "D:\\Document\\Programming\\JavaScript\\custom-eth-swap-smart-contract\\contracts\\baby-coin\\contracts\\BabyCoin.sol",
  "compiler": {
    "name": "solc",
    "version": "0.8.9+commit.e5eed63a.Emscripten.clang"
  },
  "schemaVersion": "3.4.3",
  "updatedAt": "2021-11-09T10:27:55.495Z",
  "networkType": "ethereum",
  "devdoc": {
    "kind": "dev",
    "methods": {},
    "version": 1
  },
  "userdoc": {
    "kind": "user",
    "methods": {},
    "version": 1
  }
}