{
  "contractName": "BabySwap",
  "abi": [
    {
      "inputs": [
        {
          "internalType": "address",
          "name": "",
          "type": "address"
        }
      ],
      "name": "liquidityPool",
      "outputs": [
        {
          "internalType": "uint256",
          "name": "liquidityAmount",
          "type": "uint256"
        },
        {
          "internalType": "uint256",
          "name": "tokenBalance",
          "type": "uint256"
        }
      ],
      "stateMutability": "view",
      "type": "function"
    },
    {
      "inputs": [],
      "name": "name",
      "outputs": [
        {
          "internalType": "string",
          "name": "",
          "type": "string"
        }
      ],
      "stateMutability": "view",
      "type": "function"
    },
    {
      "inputs": [
        {
          "internalType": "address",
          "name": "_token",
          "type": "address"
        }
      ],
      "name": "setCounterAddr",
      "outputs": [],
      "stateMutability": "payable",
      "type": "function"
    },
    {
      "inputs": [],
      "name": "getName",
      "outputs": [
        {
          "internalType": "string",
          "name": "",
          "type": "string"
        }
      ],
      "stateMutability": "view",
      "type": "function"
    }
  ],
  "bytecode": "0x60806040526040518060400160405280600981526020017f42616279205377617000000000000000000000000000000000000000000000008152506000908051906020019061004f929190610062565b5034801561005c57600080fd5b50610166565b82805461006e90610134565b90600052602060002090601f01602090048101928261009057600085556100d7565b82601f106100a957805160ff19168380011785556100d7565b828001600101855582156100d7579182015b828111156100d65782518255916020019190600101906100bb565b5b5090506100e491906100e8565b5090565b5b808211156101015760008160009055506001016100e9565b5090565b7f4e487b7100000000000000000000000000000000000000000000000000000000600052602260045260246000fd5b6000600282049050600182168061014c57607f821691505b602082108114156101605761015f610105565b5b50919050565b610638806101756000396000f3fe60806040526004361061003f5760003560e01c806306fdde031461004457806317d7de7c1461006f578063c0806db61461009a578063ec39b429146100d8575b600080fd5b34801561005057600080fd5b506100596100f4565b604051610066919061032f565b60405180910390f35b34801561007b57600080fd5b50610084610182565b604051610091919061032f565b60405180910390f35b3480156100a657600080fd5b506100c160048036038101906100bc91906103c3565b61022e565b6040516100cf929190610409565b60405180910390f35b6100f260048036038101906100ed91906103c3565b610252565b005b6000805461010190610461565b80601f016020809104026020016040519081016040528092919081815260200182805461012d90610461565b801561017a5780601f1061014f5761010080835404028352916020019161017a565b820191906000526020600020905b81548152906001019060200180831161015d57829003601f168201915b505050505081565b6060600160009054906101000a900473ffffffffffffffffffffffffffffffffffffffff1673ffffffffffffffffffffffffffffffffffffffff166306fdde036040518163ffffffff1660e01b815260040160006040518083038186803b1580156101ec57600080fd5b505afa158015610200573d6000803e3d6000fd5b505050506040513d6000823e3d601f19601f8201168201806040525081019061022991906105b9565b905090565b60026020528060005260406000206000915090508060000154908060010154905082565b80600160006101000a81548173ffffffffffffffffffffffffffffffffffffffff021916908373ffffffffffffffffffffffffffffffffffffffff16021790555050565b600081519050919050565b600082825260208201905092915050565b60005b838110156102d05780820151818401526020810190506102b5565b838111156102df576000848401525b50505050565b6000601f19601f8301169050919050565b600061030182610296565b61030b81856102a1565b935061031b8185602086016102b2565b610324816102e5565b840191505092915050565b6000602082019050818103600083015261034981846102f6565b905092915050565b6000604051905090565b600080fd5b600080fd5b600073ffffffffffffffffffffffffffffffffffffffff82169050919050565b600061039082610365565b9050919050565b6103a081610385565b81146103ab57600080fd5b50565b6000813590506103bd81610397565b92915050565b6000602082840312156103d9576103d861035b565b5b60006103e7848285016103ae565b91505092915050565b6000819050919050565b610403816103f0565b82525050565b600060408201905061041e60008301856103fa565b61042b60208301846103fa565b9392505050565b7f4e487b7100000000000000000000000000000000000000000000000000000000600052602260045260246000fd5b6000600282049050600182168061047957607f821691505b6020821081141561048d5761048c610432565b5b50919050565b600080fd5b600080fd5b7f4e487b7100000000000000000000000000000000000000000000000000000000600052604160045260246000fd5b6104d5826102e5565b810181811067ffffffffffffffff821117156104f4576104f361049d565b5b80604052505050565b6000610507610351565b905061051382826104cc565b919050565b600067ffffffffffffffff8211156105335761053261049d565b5b61053c826102e5565b9050602081019050919050565b600061055c61055784610518565b6104fd565b90508281526020810184848401111561057857610577610498565b5b6105838482856102b2565b509392505050565b600082601f8301126105a05761059f610493565b5b81516105b0848260208601610549565b91505092915050565b6000602082840312156105cf576105ce61035b565b5b600082015167ffffffffffffffff8111156105ed576105ec610360565b5b6105f98482850161058b565b9150509291505056fea26469706673582212209b5e7247db9a29a2f6b692a812c5a6d76aae4c385e3699936185ef7dfb7a3af564736f6c63430008090033",
  "immutableReferences": {},
  "source": "pragma solidity ^0.8.9;\r\n\r\ninterface IBabySwap {\r\n  function name() external view returns(string memory);\r\n}\r\n\r\ncontract BabySwap {\r\n  string public name = \"Baby Swap\";\r\n  address tokenAddress;\r\n\r\n  function setCounterAddr(address _token) public payable {\r\n    tokenAddress = _token;\r\n  }\r\n\r\n  struct Liquidity {\r\n    uint liquidityAmount;\r\n    uint tokenBalance;\r\n  }\r\n\r\n  mapping(address => Liquidity) public liquidityPool;\r\n\r\n  // function addLiquidity(\r\n  //   address token,\r\n  //   uint amount,\r\n  //   uint balance\r\n  // ) public {\r\n  //   liquidityPool[token] = Liquidity(amount, balance);\r\n  // }\r\n\r\n  function getName() external view returns(string memory) {\r\n    return IBabySwap(tokenAddress).name();\r\n  }\r\n}",
  "sourcePath": "D:\\Document\\Programming\\JavaScript\\custom-eth-swap-smart-contract\\contracts\\baby-swap\\contracts\\BabySwap.sol",
  "compiler": {
    "name": "solc",
    "version": "0.8.9+commit.e5eed63a.Emscripten.clang"
  },
  "schemaVersion": "3.4.3",
  "updatedAt": "2021-11-09T08:19:30.377Z",
  "devdoc": {
    "kind": "dev",
    "methods": {},
    "version": 1
  },
  "userdoc": {
    "kind": "user",
    "methods": {},
    "version": 1
  }
}